:020000040000FA
:0600000051EF1BF012009D
:0600080004EF08F01200F5
:060018000CEF08F01200DD
:0610000051EF1BF012008D
:021006001200D6
:0610080091EF10F0120050
:061018009AEF10F0120037
:02101E000100CF
:0C102000D0360000C900000029000000CC
:04102C00D9CFE6FF33
:10103000E1CFD9FFE6520F015F6B626A160E616E57
:101040009F0E5B6F7B0E606E648C5C6B040EE66EB5
:10105000E66AE66A540EE66E0F0EE66EDDEC1AF0F6
:10106000146E050EE15E1450649CDF6ADF50146E4E
:10107000156A140E145C000E155810E2DF50040DB2
:10108000F3CFE9FFF4CFEAFF000EE926020EEA22D1
:10109000EE6AEE6AEE6AEE6ADF2AE8D70F01160EF4
:1010A000536F62A602D06296FCD700017F6B846BFF
:1010B000856B866B6498080E716F020E726F616BA0
:1010C000606BE552E552E7CFD9FF1200D9CFE6FFBA
:1010D000E1CFD9FFE6520001605117E106D0646A02
:1010E000606A0001606BA194AAD0646A606A160EFF
:1010F000616E0F019F0E5B6F7B0E606E64B602D057
:101100006486FCD70001010E606F600508E164BAD7
:1011100006D0626A606A60806088020E606F62500A
:10112000040B05E06050040B02E06294B9D864A29D
:1011300002D0A19484D06250010B12E06050010BE8
:101140000FE074DF0001040E606F0201500E026FA9
:10115000020E036F080E016F006B8C0E001362907D
:101160006250100B05E06050100B02E087D86298C7
:101170006250400B13E06050400B10E0010EE66E31
:10118000E66A000EE66EE66A730EE66EE66A45EC07
:1011900018F0146E060EE15E1450629C6250200B33
:1011A00004E06050200B01E04FD86250020B14E0C5
:1011B0006050020B11E0010EE66EE66A000EE66E6C
:1011C000E66AE6687F0EE66E45EC18F0146E060ED1
:1011D000E15E14500F015F6B040E0001E76E6019B1
:1011E000E8AE02D0E73402D0E750605D02E2A1949D
:1011F00026D060A623D0DF6A040EDF5C1FE262A661
:101200001AD063CF8CF06296780E00018C1502E143
:101210005CD810D0000EE66EE66A8C0EE66E000E0C
:10122000E66E720EE66EE66A45EC18F0146E060E77
:10123000E15E145001D002D0DF2ADED7A194E5523E
:10124000E552E7CFD9FF12000F0153A115D063C0BB
:10125000E9FF64C0EAFFEF5080080DE171C0E9FFCB
:1012600072C0EAFFEF50840806E163C0E9FF64C082
:10127000EAFF8C0EEF6E5391629A120060846298BE
:101280006482000EE66EE66AE66EE66A750EE66E4B
:10129000E66A45EC18F0146E060EE15E145012007A
:1012A000000EE66EE66AE66EE66A740EE66EE66AC2
:1012B00045EC18F0146E060EE15E145064926094D2
:1012C00062A402D06294FCD71200D9CFE6FFE1CF2E
:1012D000D9FFE652FD0E00018C155AE17E0E8C15E9
:1012E000E8407F0B040DF3CF63F0F4CF64F0000E01
:1012F0006327020E642363C065F064C066F0657501
:1013000063C0E9FF64C0EAFFEF503C0BE842E842EB
:101310000D083CE163C0E9FF64C0EAFF020EE92664
:10132000000EEA22EECF14F0EFCF15F0580E14188D
:1013300002E1020E151828E163C0E9FF64C0EAFF6C
:10134000020EE926000EEA22500EEE6E020EED6E3F
:10135000DF6ADF50146E156A080E145C000E155813
:1013600013E2DF50EA6A580FE96E020EEA22EF50EC
:10137000E66EDF50EA6A500FE96E020EEA22E5528D
:10138000E750EF6EDF2AE5D70DD801D02ED805D073
:10139000FD0E8C15040801E14ED8E552E552E7CF69
:1013A000D9FF120071C0E9FF72C0EAFFEF50800B55
:1013B00005E071C0E9FF72C0EAFFEF6A00017B6BD4
:1013C0007C6B806B816B7F6BB9D8000EE66EE66A32
:1013D000E66EE66A030EE66EE66A45EC18F0146EF9
:1013E000060EE15E145049EF0CF0020E00017C5D28
:1013F00002E1AFDB1FD06FD800018D511AE165C04B
:10140000E9FF66C0EAFFEE52080EEF6E65C0E9FF25
:1014100066C0EAFF020EE926000EEA22500EEE6ECA
:10142000020EED6E65C0E9FF66C0EAFF8C0EEF6E3E
:1014300001D08D6B1200D9CFE6FFE1CFD9FFE65284
:1014400071C0E9FF72C0EAFFEF50400B01E0010EEE
:10145000DF6E00017175080E605D0DE152C25CFF28
:101460000F015C51000804E20001100E606F03D010
:101470000001040E606F7C0528E171C0E9FF72C0B5
:10148000EAFF020EE926000EEA22580EEE6E020E68
:10149000ED6ED4DA020E00017B5D07E171C0E9FF59
:1014A00072C0EAFF840EEF6E0FD0DF5007E171C00B
:1014B000E9FF72C0EAFFC80EEF6E06D071C0E9FF07
:1014C00072C0EAFF880EEF6E01D005D8E552E552F2
:1014D000E7CFD9FF1200D9CFE6FFE1CFD9FF020E47
:1014E000E12600017C6B71C0E9FF72C0EAFFEF6A80
:1014F000040E7119146E72C015F014C0DEFF15C011
:10150000DDFFDECFE9FFDDCFEAFFEF6A84AF0CD06D
:101510008751881107E005D088C0FAFF0001875184
:10152000F96EFADF0001849F020EE15C02E2E16ADB
:10153000E552E16EE552E7CFD9FF120002015051AA
:10154000600BE842E842E842E842E842000901E074
:1015500058D051510C0A54E00B0A43E00C0A35E014
:10156000010A26E00B0A22E0020A20E0030A1CE03E
:10157000080A10E0010A0CE00F0A08E0030A01E083
:101580003FD000017F8F080E606F3BD0C7D839D0A5
:101590007EDB37D00001610E7D6F000E7E6F7F8194
:1015A000010E806F7F8F2DD013D92BD02BD829D04F
:1015B000545100017D6F7E6B620E7D27000E7E23ED
:1015C0007F81010E806F7F8F1CD000017F8F020111
:1015D0005451EA6A620FE96E000EEA2252C2EFFF2E
:1015E00010D0000EE66EE66AE66EE66A020EE66E61
:1015F000E66A45EC18F0146E060EE15E145001D058
:1016000000D01200D9CFE6FFE1CFD9FF040EE126CA
:101610000201520510E150511F0B00090CE10001BD
:101620007F8F030E0201515D04E10001010E8B6FFB
:1016300002D000018B6B0201525166E150511F0B29
:10164000020862E154510F0B00095EE000017F8F38
:10165000020154BF10D054510F0BE96EEA6AD890C2
:10166000E936EA36670EE926000EEA22EECFDEFF03
:10167000EDCFDDFF0FD054510F0BE96EEA6AD89021
:10168000E936EA36710EE926000EEA22EECFDEFFD9
:10169000EDCFDDFF030E515D07E1DECFE9FFDDCFCA
:1016A000EAFF840EEF6E30D054510F0B156A530FC2
:1016B000146E0F0E1522020E14C0DBFF030E15C0B0
:1016C000DBFF020EDBCFE9FF030EDBCFEAFFEF907B
:1016D00054AF0DD0DECFE9FFDDCFEAFFEF6ADF7454
:1016E000DECFE9FFDDCFEAFF400EEF6E0DD0DECF9B
:1016F000E9FFDDCFEAFF880EEF6EDF74DECFE9FF92
:10170000DDCFEAFFC80EEF6E040EE15C02E2E16A93
:10171000E552E16EE552E7CFD9FF1200800E0201DB
:10172000505D55E10001C00E7F6F02015351030A65
:101730002EE0010A0EE0030A03E000017F6B47D0B0
:101740000001200E7D6F310E7E6F120E806F816B57
:101750003ED05251F66EF76AD890F636F736B30E91
:10176000F626320EF7220900F5CF7DF00A00F5CFFC
:101770007EF0020E0001F76A7D25F66E7E51F7229B
:101780000900F5CF80F00A00F5CF81F020D0030EDC
:10179000525D1AE25251F66EF76AD890F636F73675
:1017A000B50EF626320EF7220900F5CF7DF00A00BD
:1017B000F5CF7EF07DC0F6FF7EC0F7FF0800F55044
:1017C0000001806F816B02D000017F6B00D012009E
:1017D000D9CFE6FFE1CFD9FF020EE1260201586B17
:1017E000596B50511F0B020A12E0030A0DE0010A67
:1017F00001E03BD000017F8F0201588100018B0581
:1018000002E10201588331D000017F8F2ED0000108
:101810007F8F020154BF10D054510F0BE96EEA6A5A
:10182000D890E936EA36670EE926000EEA22EECFB6
:10183000DEFFEDCFDDFF0FD054510F0BE96EEA6AEA
:10184000D890E936EA36710EE926000EEA22EECF8C
:10185000DEFFEDCFDDFFDECFE9FFDDCFEAFFEF50AA
:10186000040B02E0010E586F00D000017FAF07D0DB
:10187000580E7D6F020E7E6F7F81020E806F020E0A
:10188000E15C02E2E16AE552E16EE552E7CFD9FFA1
:101890001200649800017FBF4AD084AF28D0020EA6
:1018A0007C6F71C0E9FF72C0EAFFEE52EF6A71C04F
:1018B000E9FF72C0EAFFC80EEF6E65C0E9FF66C0BF
:1018C000EAFFEE52080EEF6E65C0E9FF66C0EAFF60
:1018D000020EE926000EEA22580EEE6E020EED6EA2
:1018E00065C0E9FF66C0EAFFC80EEF6E1FD065C095
:1018F000E9FF66C0EAFFEE52080EEF6E65C0E9FF31
:1019000066C0EAFF020EE926000EEA22500EEE6ED5
:10191000020EED6E65C0E9FF66C0EAFF8C0EEF6E49
:1019200071C0E9FF72C0EAFF840EEF6E86D084BFFB
:1019300084D0020150AF59D0000180510201565DA0
:10194000000181510201575904E256C280F057C28A
:1019500081F074D80001010E7C6F65C0E9FF66C09C
:10196000EAFFEE52080EEF6E65C0E9FF66C0EAFFBF
:10197000020EE926000EEA22500EEE6E020EED6E09
:1019800065C0E9FF66C0EAFF800EEF6E8D6B63C035
:10199000E9FF64C0EAFFEE52080EEF6E63C0E9FF94
:1019A00064C0EAFF020EE926000EEA22500EEE6E37
:1019B000020EED6E63C0E9FF64C0EAFF840EEF6EB5
:1019C000010E8D6F71C0E9FF72C0EAFF020EE926B9
:1019D000000EEA22580EEE6E020EED6E71C0E9FFA7
:1019E00072C0EAFFC80EEF6E28D00001020E7C6FB5
:1019F00071C0E9FF72C0EAFFEE52EF6A71C0E9FF01
:101A000072C0EAFFC80EEF6E65C0E9FF66C0EAFF6C
:101A1000EE52080EEF6E65C0E9FF66C0EAFF020EE7
:101A2000E926000EEA22580EEE6E020EED6E65C03B
:101A3000E9FF66C0EAFFC80EEF6E1200D9CFE6FFDD
:101A4000E1CFD9FF020EE1260001080E805D000EF5
:101A500081590EE280C0DEFF81C0DDFF7B5103E1D2
:101A6000010E7B6F04D07B0502E1020E7B6F03D079
:101A7000080EDE6EDD6A71C0E9FF72C0EAFFEF9208
:101A800071C0E9FF72C0EAFFEF9071C0E9FF72C058
:101A9000EAFF010EDB50EF1271C0E9FF72C0EAFFEE
:101AA000EE52DFCFEFFF000EDB50805F010EDB5008
:101AB000815B580E896F020E8A6F7FB121D0D9CF1A
:101AC000E9FFDACFEAFFEE50ED1019E07DC0F6FF36
:101AD0007EC0F7FF7D2B000E7E230800F550E66EDA
:101AE00089C0E9FF8AC0EAFF892B000E8A23E552EC
:101AF000E750EF6EDF06010E01E2DB06E0D71FD0F4
:101B0000D9CFE9FFDACFEAFFEE50ED1018E07DC043
:101B1000E9FF7EC0EAFF7D2B000E7E23EF50E66ECC
:101B200089C0E9FF8AC0EAFF892B000E8A23E552AB
:101B3000E750EF6EDF06010E01E2DB06E1D7020E91
:101B4000E15C02E2E16AE552E16EE552E7CFD9FFDE
:101B50001200D9CFE6FFE1CFD9FF020EE12663C024
:101B6000E9FF64C0EAFFEE52EFCFDFFFDFCF14F0F2
:101B700014500001855D000E865903E285C0DFFF29
:101B800009D0DF50146E156A1450855D856F1550AD
:101B90008659866F010EDB6ADF50F36E010EDBCFD4
:101BA000F4FFF350F45C16E2010EDB50EA6A580FC2
:101BB000E96E020EEA22EF50E66E82C0E9FF83C0B2
:101BC000EAFF822B000E8323E552E750EF6E010EF1
:101BD000DB2AE2D7000ED8808555000E865528E214
:101BE00065C0E9FF66C0EAFFEE52080EEF6E65C001
:101BF000E9FF66C0EAFF020EE926000EEA22580E4F
:101C0000EE6E020EED6E63C0E9FF64C0EAFFEF50B6
:101C1000400B07E165C0E9FF66C0EAFFC80EEF6E42
:101C200006D065C0E9FF66C0EAFF880EEF6E25D0DA
:101C300065C0E9FF66C0EAFFEE52080EEF6E65C0B0
:101C4000E9FF66C0EAFF020EE926000EEA22500E06
:101C5000EE6E020EED6E65C0E9FF66C0EAFF840E0F
:101C6000EF6E8751881107E005D088C0FAFF0001A8
:101C70008751F96EFADF0001849F020EE15C02E2F7
:101C8000E16AE552E16EE552E7CFD9FF1200D9CF04
:101C9000E6FFE1CFD9FFE65200017F8F040EE66E2A
:101CA000E66AE66A540EE66E0F0EE66EDDEC1AF09A
:101CB000146E050EE15E1450DF6ADF50146E156A73
:101CC000140E145C000E155810E2DF50040DF3CF13
:101CD000E9FFF4CFEAFF000EE926020EEA22EE6ADF
:101CE000EE6AEE6AEE6ADF2AE8D7648C010EE66ED1
:101CF000E66AE66A620EE66E000EE66EDDEC1AF04B
:101D0000146E050EE15E1450649C0001080E716FA4
:101D1000020E726F000E636F020E646F63C065F097
:101D200064C066F052C261F0615103E1100E606F51
:101D300012D0200E606F010EE66EE66A610EE66E4E
:101D4000000EE66E010EE66EE66A45EC18F0146EC3
:101D5000060EE15E1450E552E552E7CFD9FF1200BE
:101D6000D9CFE6FFE1CFD9FF020EE126000EDE6EED
:101D7000020EDD6EFD0EDB50E824166EFE0EDB500B
:101D8000040DF3501624040DF350146E156A020E60
:101D90000F0B05E0D89015321432E806FBE1D8901D
:101DA00014361536D89014361536D9CFE9FFDACF68
:101DB000EAFF1450EE261550ED22DECFE9FFDDCF0D
:101DC000EAFFEF9EFD0EDB500FE1FE0EEA6ADB3408
:101DD000FE0BEA36E96E670EE926000EEA22DECF38
:101DE000EEFFDDCFEDFF0ED0FE0EEA6ADB34FE0B18
:101DF000EA36E96E710EE926000EEA22DECFEEFF2A
:101E0000DDCFEDFFDECFE9FFDDCFEAFFEF9CDECFD8
:101E1000E9FFDDCFEAFF040EE926000EEA22EF8C8F
:101E2000020EE15C02E2E16AE552E16EE552E7CFC3
:101E3000D9FF1200D9CFE6FFE1CFD9FF020EE1268C
:101E4000FE0EDB50156A530F146E0F0E152214C0D0
:101E5000DEFF15C0DDFFDECFE9FFDDCFEAFFFD0EBF
:101E6000DBCFEFFFDBA407D0E66AFE0EDBCFE6FF99
:101E700077DFE552E552FD0EDBA208D0010EE66EDB
:101E8000FE0EDBCFE6FF6CDFE552E552020EE15CB1
:101E900002E2E16AE552E16EE552E7CFD9FF1200B6
:101EA000D9CFE6FFE1CFD9FF020EE126FE0EDB50CF
:101EB00020E165C0E9FF66C0EAFFEE52080EEF6E52
:101EC00065C0E9FF66C0EAFF020EE926000EEA22BD
:101ED000500EEE6E020EED6E65C0E9FF66C0EAFFC1
:101EE0008C0EEF6E71C0E9FF72C0EAFF840EEF6ED8
:101EF0003DD0FD0EDB50E824166EFE0EDB50040DC7
:101F0000F3501624040DF3CF14F0F4CF15F0000EA7
:101F10001426020E152214C0DEFF15C0DDFF840E4C
:101F2000146EDECFE9FFDDCFEAFF1450EF12FD0E95
:101F3000DB50E824166EFE0EDB50040DF350162421
:101F4000010F040DF3CF14F0F4CF15F0000E14269A
:101F5000020E152214C0DEFF15C0DDFF840E146EC4
:101F6000DECFE9FFDDCFEAFF1450EF12020EE15C95
:101F700002E2E16AE552E16EE552E7CFD9FF1200D5
:101F8000D9CFE6FFE1CFD9FF020EE126FD0EDB50EF
:101F90000FE0FE0EEA6ADB34FE0BEA36E96E710EE4
:101FA000E926000EEA22EECFDEFFEDCFDDFF0ED0F8
:101FB000FE0EEA6ADB34FE0BEA36E96E670EE926AE
:101FC000000EEA22EECFDEFFEDCFDDFFDECFE9FF30
:101FD000DDCFEAFF020EE926000EEA22FB0EDBCF80
:101FE000EEFFFC0EDBCFEDFFDECFE9FFDDCFEAFF3A
:101FF000EE52FA0EDBCFEFFF400E146EDECFE9FF9C
:10200000DDCFEAFF1450EF16880E146EDECFE9FF25
:10201000DDCFEAFF1450EF12FD0EDB500CE0FE0E98
:10202000EA6ADB34FE0BEA36E96E710EE926000E31
:10203000EA22EF740BD0FE0EEA6ADB34FE0BEA36BE
:10204000E96E670EE926000EEA22EF74DECF14F087
:10205000DDCF15F014C0F3FF15C0F4FF020EE15CF4
:1020600003E200D0E16AE552E16EE552E7CFD9FF25
:102070001200D9CFE6FFE1CFD9FF64A84ED0FE0E03
:10208000EA6ADB34FE0BEA36E96E710EE926000ED1
:10209000EA22EE50EFCFEAFFE96E400EEE16EE6A4E
:1020A000EE6AEE6AFE0EEA6ADB34FE0BEA36E96E91
:1020B000710EE926000EEA22EE50EFCFEAFFE96E3C
:1020C000EE7CFE0EEA6ADB34FE0BEA36E96E710E38
:1020D000E926000EEA22EF74400E146EFE0EEA6A44
:1020E000DB34FE0BEA36E96E710EE926000EEA22B9
:1020F000EE50EFCFEAFFE96E1450EF16FE0EEA6ADB
:10210000DB34FE0BEA36E96E710EE926000EEA2298
:10211000EE50EFCFEAFFE96EEF7CE552E7CFD9FF53
:022120001200AB
:0E212200DACFE4FFE2CFDAFFE652E552E5CF76
:10213000DAFF1100D8CFE4FFE0CFE4FFE46EDACF9E
:10214000E4FFE2CFDAFFE652E552E5CFDAFFE550F1
:10215000E5CFE0FFE5CFD8FF100005D866EC08F02A
:10216000E7D8FCD712000F0EC11202D816EF08F004
:10217000D9CFE6FFE1CFD9FFE652010EDF6E936AB9
:10218000946E100E7E6E7F6A250EC26EC16AAE0E10
:10219000C06E0001AE6BAF6BB06BB16BB26BB36B6B
:1021A000B46BB56B0001CD6BCE6BCF6BD06B020106
:1021B0006C6B6CC26BF26CC26AF26CC269F26F6BD0
:1021C0006FC26EF26FC26DF20201686B68C267F295
:1021D00068C266F268C265F268C264F268C263F2FD
:1021E00068C262F268C261F20001A16BA1C0A0F0F6
:1021F000A1C09FF0A1C09EF0AD6BADC0ACF0ADC072
:10220000ABF0ADC0AAF0ADC0A9F0ADC0A8F0ADC0B4
:10221000A7F0ADC0A6F0A26BA36B800EA46FA56F54
:10222000000EE66EE66A05EC1BF0E552E552000191
:10223000E96F010EE66EE66A05EC1BF0E552E55229
:102240000001EA6F020EE66EE66A05EC1BF0E5524D
:10225000E5520001EB6F030EE66EE66A05EC1BF03B
:10226000E552E5520001EC6F040EE66EE66A05ECFD
:102270001BF0E552E5520001ED6F050EE66EE66AD1
:1022800005EC1BF0E552E5520001EE6F100EE95D22
:1022900003E3FF0EE95D47E1EE6BEEC0EDF0EEC04B
:1022A000ECF0EEC0EBF0EEC0EAF0400EE96FE9C0F2
:1022B000E6FF000EE66EE66A14EC1BF0E552E5520E
:1022C000E552EAC0E6FF010EE66EE66A14EC1BF08A
:1022D000E552E552E552EBC0E6FF020EE66EE66A15
:1022E00014EC1BF0E552E552E552ECC0E6FF030E9C
:1022F000E66EE66A14EC1BF0E552E552E552EDC0DD
:10230000E6FF040EE66EE66A14EC1BF0E552E552B9
:10231000E552EEC0E6FF050EE66EE66A14EC1BF031
:10232000E552E552E552E552E552E7CFD9FF1200FA
:10233000D9CFE6FFE1CFD9FF050EE126200E00013F
:10234000E76E6019E8AE02D0E73402D0E750605D76
:1023500003E36450020B02E005EF18F00001B76BD5
:102360000001B86B0001B96B0001BA6B0001BB6BD7
:102370000001BC6B0001BD6B0001BE6B0001BF6BB7
:102380000001C06B0001DF5101E00AD10001100E15
:10239000DF6F949E828E270EC26E949082909480FE
:1023A000110EC26EC282C2B2FED75FEC1BF0F3CF39
:1023B000C3F0F4CFC4F0100E086E096AC3C00DF06C
:1023C000C4C00EF070EC1AF006C0C3F007C0C4F031
:1023D000949082900001E63504E2E5510008000E79
:1023E000E65508E20001E507000EE65BC3C0C5F054
:1023F000C4C0C6F0010EDB6AC5C016F0C6C017F037
:10240000050ED89017321632E804FBE10001165091
:10241000C55D146E1750C659156E00011450C35D8A
:102420001550C45912E20A0E0001DE5D07E10001F9
:10243000010EDD6FDE52010EDD6E06D00A0E0001C8
:10244000DE5D02E20001DE2B23D0C5C016F0C6C05F
:1024500017F0070ED89017321632E804FBE100019E
:102460001650C55D146E1750C659156E0001C35144
:10247000145CC45115580CE20001DE5103E1000167
:10248000DD6B06D00001DE51000802E20001DE072C
:10249000C5C016F0C6C017F0070ED8901732163216
:1024A000E804FBE100011650C55D146E1750C659D3
:1024B000156E00011450C35D1550C45902E3010E9E
:1024C000DB6A010EDB506BE10001E32B000EE4231D
:1024D0000001C3510001C55D0001C4510001C6598E
:1024E0002CE20001800EE35D000EE45925E30001BB
:1024F000C5510001C35D146EC4510001C655156E6F
:10250000100E0D6E0E6A14C008F015C009F01DEC17
:102510001AF008C014F009C015F000010001C551FF
:1025200014240001C56F00010001C65115200001EF
:10253000C66F0001E36BE46B32D00001E951080D76
:10254000F3CF14F0F4CF15F000011450E35D1550F3
:10255000E45925E30001C5510001C35D146EC45167
:102560000001C655156E100E0D6E0E6A14C008F0EF
:1025700015C009F01DEC1AF008C014F009C015F0E0
:1025800000010001C55114240001C56F00010001C4
:10259000C65115200001C66F0001E36BE46B02D049
:1025A0000001DF070001EB050FE10001E05109E147
:1025B0000001DD0506E10001010EE16F0001E26BA3
:1025C00002D00001E16B02D0DDC0E1F0DDC0E0F03F
:1025D0000001EC51020A01E183D0030A71E0010A13
:1025E00001E0EFD00001E1056AE10001ED5103E1F6
:1025F00000019E8161D00001ED0503E100019E8391
:102600005BD0020E0001ED5D03E100019E8554D018
:10261000030E0001ED5D09E10001010EB76F00013D
:10262000BD5102E1EEC0BDF047D0040E0001ED5DEA
:1026300009E10001010EB86F0001BE5102E1EEC0D8
:10264000BEF03AD0050E0001ED5D09E10001010E7A
:10265000B96F0001BF5102E1EEC0BFF02DD0060EF0
:102660000001ED5D09E10001010EBA6F0001C051EA
:1026700002E1EEC0C0F020D0070E0001ED5D06E1E2
:102680000001010EBB6FEEC0C1F016D0080E0001B4
:10269000ED5D06E10001010EBC6FEEC0C2F00CD092
:1026A000090E0001ED5D08E1EEC0BDF0EEC0BEF028
:1026B000EEC0BFF0EEC0C0F00001050EF06F81D09B
:1026C0000001E10508E1EEC0A6F0EDC0A8F00001B0
:1026D000050EF16F04D00001A66B0001A86B71D04C
:1026E0000001A26B0001A36B0001800EA46F00012A
:1026F000800EA56F0001E10563E10001ED510F0AB5
:1027000057E0010A51E0030A4BE0010A45E0070ADD
:102710003FE0010A39E0030A33E0010A2DE00F0A25
:1027200027E0010A21E0030A1BE0010A15E0070A7D
:1027300010E0010A0BE0030A06E0010A01E03CD0C8
:102740000001A56B3AD00001A56937D00001A46B48
:1027500034D00001A46931D00001010EA26F2DD048
:102760000001020EA26F29D00001040EA26F25D035
:102770000001080EA26F21D00001100EA26F1DD023
:102780000001200EA26F19D00001400EA26F15D0DB
:102790000001800EA26F11D00001010EA36F0DD0B9
:1027A0000001020EA36F09D00001040EA36F05D033
:1027B0000001080EA36F01D000D00001050EEF6FDD
:1027C00000D00001AE51AF1102E1000E08D0AEC042
:1027D000E9FFAFC0EAFFEF50800B01E0010E0009F6
:1027E00001E0AAD10001B7053FE10001BD51146E1F
:1027F000156A14500001D12715500001D2230001A1
:10280000D23504E2D1513208000ED2552CE2D1C0AB
:1028100014F0D2C015F0320E0D6E0E6A14C008F01E
:1028200015C009F01DEC1AF008C014F009C015F02D
:102830000868096814C00DF015C00EF043EC1AF0DA
:1028400006C0A0F0D1C0D1F0D2C0D2F0320E0D6ED1
:102850000E6AD1C008F0D2C009F01DEC1AF004C015
:10286000D1F005C0D2F003D00001D16BD26B0001D2
:10287000B80533E10001BE51146E156A1450000111
:10288000D32715500001D4230001D43504E2D351DD
:102890003208000ED45520E2320E146E156AD3C0F1
:1028A00008F0D4C009F014C00DF015C00EF01DECF6
:1028B0001AF008C0A0F0D3C0D3F0D4C0D4F0320EC8
:1028C0000D6E0E6AD3C008F0D4C009F01DEC1AF0EA
:1028D00004C0D3F005C0D4F003D00001D36BD46B97
:1028E0000001B9053FE10001BF51146E156A145093
:1028F0000001D52715500001D6230001D63504E28A
:10290000D5513208000ED6552CE2D5C014F0D6C0F1
:1029100015F0320E0D6E0E6A14C008F015C009F0E5
:102920001DEC1AF008C014F009C015F00868096819
:1029300014C00DF015C00EF043EC1AF006C09FF065
:10294000D5C0D5F0D6C0D6F0320E0D6E0E6AD5C009
:1029500008F0D6C009F01DEC1AF004C0D5F005C08F
:10296000D6F003D00001D56BD66B0001BA0533E178
:102970000001C051146E156A14500001D72715507C
:102980000001D8230001D83504E2D7513208000EE7
:10299000D85520E2320E146E156AD7C008F0D8C0A0
:1029A00009F014C00DF015C00EF01DEC1AF008C0AF
:1029B0009FF0D7C0D7F0D8C0D8F0320E0D6E0E6A97
:1029C000D7C008F0D8C009F01DEC1AF004C0D7F049
:1029D00005C0D8F003D00001D76BD86B0001BB0550
:1029E00035E10001C151146E156A14500001D92758
:1029F00015500001DA230001DA3504E2D951E80864
:102A0000030EDA5522E2E80E146E030E156ED9C0DD
:102A100008F0DAC009F014C00DF015C00EF01DEC7E
:102A20001AF008C0A1F0D9C0D9F0DAC0DAF0E80E87
:102A30000D6E030E0E6ED9C008F0DAC009F01DEC61
:102A40001AF004C0D9F005C0DAF003D00001D96B48
:102A5000DA6B0001BC0541E10001C251146E156A38
:102A600014500001DB2715500001DC230001DC3588
:102A700004E2DB51E808030EDC552EE2DBC014F063
:102A8000DCC015F0E80E0D6E030E0E6E14C008F0DB
:102A900015C009F01DEC1AF008C014F009C015F0BB
:102AA0000868096814C00DF015C00EF043EC1AF068
:102AB00006C0A1F0DBC0DBF0DCC0DCF0E80E0D6E80
:102AC000030E0E6EDBC008F0DCC009F01DEC1AF03E
:102AD00004C0DBF005C0DCF003D00001DB6BDC6B75
:102AE0009EC06DF29FC06EF2A0C06FF2A1C070F2E6
:102AF00000019E6B00019F6B0001A06B0001A16BA8
:102B00000001F051000818E2040EE66E6D0EE66E4C
:102B1000020EE66E010EE66E010EE66EC0EC0FF0E0
:102B2000146E050EE15E1450F3CFAEF0F4CFAFF0AB
:102B30000001E2810001F0070001B251B31102E18E
:102B4000000E08D0B2C0E9FFB3C0EAFFEF50800B1F
:102B500001E0010E00093CE1A6C061F2A7C062F2EB
:102B6000A8C063F2A9C064F2AAC065F2ABC066F265
:102B7000ACC067F2ADC068F20001A66B0001A76BA4
:102B80000001A86B0001A96B0001AA6B0001AB6BEF
:102B90000001AC6B0001AD6B0001F151000818E2BF
:102BA000080EE66E610EE66E020EE66E010EE66E31
:102BB000030EE66EC0EC0FF0146E050EE15E1450CD
:102BC000F3CFB2F0F4CFB3F00001E2830001F107DC
:102BD0000001B451B51102E1000E08D0B4C0E9FF04
:102BE000B5C0EAFFEF50800B01E0010E000913E1D0
:102BF000010EE66E600EE66E020EE66EE66A030EEB
:102C0000E66EC0EC0FF0146E050EE15E1450F3CFCB
:102C1000B4F0F4CFB5F00001B051B11102E1000EF3
:102C200008D0B0C0E9FFB1C0EAFFEF50800B01E06F
:102C3000010E00092EE1A2C069F2A3C06AF2A4C08D
:102C40006BF2A5C06CF20001A26B0001A36B000146
:102C5000800EA46F0001800EA56F0001EF510008E7
:102C600018E2040EE66E690EE66E020EE66E010EC6
:102C7000E66E020EE66EC0EC0FF0146E050EE15E1D
:102C80001450F3CFB0F0F4CFB1F00001E2850001B1
:102C9000EF070001CD51CE1102E1000E08D0CDC0EA
:102CA000E9FFCEC0EAFFEF50800B01E0010E000902
:102CB00001E0ABD102017951560A01E1F4D0030AD7
:102CC00001E1D9D0620A01E192D0B60A51E0010ACD
:102CD00001E086D17AC2E9F07BC2EAF07CC2EBF077
:102CE0007DC2ECF07EC2EDF07FC2EEF0E9C0E6FFFF
:102CF000000EE66EE66A14EC1BF0E552E552E55272
:102D0000EAC0E6FF010EE66EE66A14EC1BF0E5523F
:102D1000E552E552EBC0E6FF020EE66EE66A14EC01
:102D20001BF0E552E552E552ECC0E6FF030EE66EFD
:102D3000E66A14EC1BF0E552E552E552EDC0E6FF01
:102D4000040EE66EE66A14EC1BF0E552E552E5521D
:102D5000EEC0E6FF050EE66EE66A14EC1BF0E552E7
:102D6000E552E5520001580EE56F020EE66F38D1CC
:102D70000201810EB96FDDC0BAF20201010EBB6F14
:102D8000C4C014F0156A14C0BCF20001C3510201A2
:102D9000BD6FC6C014F0156A14C0BEF20001C55163
:102DA0000201BF6F0001CF51D01102E1000E08D027
:102DB000CFC0E9FFD0C0EAFFEF50800B01E0010E69
:102DC000000914E1400EE66EB90EE66E020EE66EE4
:102DD000010EE66E040EE66EC0EC0FF0146E050EEA
:102DE000E15E1450F3CFCFF0F4CFD0F0F9D0000172
:102DF000CF51D01102E1000E08D0CFC0E9FFD0C002
:102E0000EAFFEF50800B01E0010E000933E10201FF
:102E1000370EB96FE9C0BAF2EAC0BBF2EBC0BCF240
:102E2000ECC0BDF2EDC0BEF2EEC0BFF20001CF516A
:102E3000D01102E1000E08D0CFC0E9FFD0C0EAFFF8
:102E4000EF50800B01E0010E000914E1400EE66E28
:102E5000B90EE66E020EE66E010EE66E040EE66E2A
:102E6000C0EC0FF0146E050EE15E1450F3CFCFF0FE
:102E7000F4CFD0F0B5D06492646A020EDB6AFF0E24
:102E8000F36E020EDBCFF4FFF350F45C0AE2E86865
:102E9000E85004E0E80600D000D0FAD7020EDB2AA2
:102EA000EED7FF009DD00201560EB96FC90EE66E37
:102EB000000EE66EF7EC1AF0E552E552F350DF6EC5
:102EC000146ADF50E76E1418E8AE02D0E73402D07F
:102ED000E750145C5EE2DFCF15F03E0EE76E15188A
:102EE000E8AE02D0153403D0E750D880155451E332
:102EF000030EDB6A040EDB6A030EDBCF14F0040E54
:102F0000DBCF15F0DFCF16F0176A16BE1768155025
:102F10001718E8AE02D0173404D01650145C1750BE
:102F2000155825E2030EDBCFE9FF040EDBCFEAFFE5
:102F3000C90EE926000EEA22EF50E66E010EE76E9A
:102F4000030EDBCFE9FF040EDBCFEAFFE750E926F3
:102F5000000EEA22B90EE926020EEA22E552E750F7
:102F6000EF6E030EDB2A040E01E3DB2AC5D7010E48
:102F7000E76E030EDBCFE9FF040EDBCFEAFFE7507D
:102F8000E926000EEA22B90EE926020EEA22EF6ACD
:102F900002D00201BA6B0001CF51D01102E1000E44
:102FA00008D0CFC0E9FFD0C0EAFFEF50800B01E0AE
:102FB000010E000914E1400EE66EB90EE66E020E37
:102FC000E66E010EE66E040EE66EC0EC0FF0146EB7
:102FD000050EE15E1450F3CFCFF0F4CFD0F000D067
:102FE000400EE66E790EE66E020EE66EE66A040E9E
:102FF000E66EC0EC0FF0146E050EE15E1450F3CFD8
:10300000CDF0F4CFCEF00001E287050EE15C02E2E4
:10301000E16AE552E16EE552E7CFD9FF12001200F6
:103020001200120012005EEF19F012001E0EE66E82
:10303000010EE66E1AEC0FF0E552E5521E0EE66E3A
:10304000020EE66E1AEC0FF0E552E5521E0EE66E29
:10305000030EE66E1AEC0FF0E552E5521E0EE66E18
:10306000040EE66E1AEC0FF0E552E552120064848D
:103070000001080EC76F070EC86FC707000EC85BB8
:10308000C751C811FAE164941200D9CFE6FFE1CF2D
:10309000D9FFFD0EDBCF08F0FE0EDBCF09F0720E7C
:1030A000081801E1095033E0E868081802E17F0ED2
:1030B00009182BE0740E081801E1095024E0750E80
:1030C000081801E109501DE0730E081801E10950CC
:1030D00016E0030E081801E109500FE0020E08186F
:1030E00001E1095008E0010E081801E1095001E072
:1030F00010D09CDF0FD099DF0DD095DF0BD091DF82
:1031000009D08DDF07D08CDF05D08CDF03D0000025
:1031100001D000D0010E00D0E552E7CFD9FF120058
:103120001201000200000008EA220F000100010263
:10313000000109028200040100C0320904000001FC
:103140000301020009211101000122340007058159
:103150000304000809040100020300000009211112
:103160000100012231000705820340000807050223
:1031700003400008090402000203010100092111B3
:10318000010001223F00070583030800080705032B
:1031900003080008090403000203000000092111CC
:1031A000010001221D0007058403400008070504F3
:1031B0000340000805010902A1010901A100050958
:1031C0001901290315002501950375018102950157
:1031D0007505810105010930093109381581257FFF
:1031E000750895038106C0C005010905A1011500F8
:1031F0002501350045017501950C05091901290CBA
:1032000081029504810105010930093126FF00463C
:10321000FF00750895028102C005010906A101059C
:103220000719E029E7150025017501950881029528
:103230000175088103950575010508190129059196
:10324000029501750391039506750815002565051E
:1032500007190029658100C00600FF0901A10119B5
:10326000012940150026FF007508954081001901CD
:1032700029409100C0040309042603420069007438
:103280000020005400720061006400650020004FBF
:10329000006E00650020004C00540044002E001415
:1032A00003420069007400200054006F0075006341
:0B32B0000068003231753279329F3225
:0432BC00020150516A
:1032C0001F0B010801E0B8D0060E515D01E077D078
:1032D0005351230A73E0010A3AE0030A01E06FD078
:1032E0005451030A28E0010A1BE0030A0EE0010A18
:1032F00001E02CD00001440E7D6F310E7E6F090E6F
:10330000806F816BC00E7F6F21D000015D0E7D6FDD
:10331000310E7E6F090E806F816BC00E7F6F16D0ED
:1033200000017D0E7D6F310E7E6F090E806F816B07
:10333000C00E7F6F0BD000019D0E7D6F310E7E6F32
:10334000090E806F816BC00E7F6F00D038D0545152
:10335000030A28E0010A1BE0030A0EE0010A01E06B
:103360002CD00001B40E7D6F310E7E6F340E806F55
:10337000816BC00E7F6F21D00001E80E7D6F310E92
:103380007E6F310E806F816BC00E7F6F16D0000193
:10339000190E7D6F320E7E6F3F0E806F816BC00EF7
:1033A0007F6F0BD00001580E7D6F320E7E6F1D0EA9
:1033B000806F816BC00E7F6F00D001D000D0020102
:1033C0005051600BE842E842E842E842E842010816
:1033D00001E032D051510B0A29E0080A1CE0090A29
:1033E00014E0080A07E00B0A04E0080A01E024D010
:1033F00023D022D00001FC0E7D6F000E7E6F010EE7
:10340000806F816BC10E7F6F17D00001800E7F6FC0
:1034100053C2FCF011D00001FD0E7D6F000E7E6FD7
:10342000010E806F816B810E7F6F06D00001800ED0
:0A3430007F6F52C2FDF000D01200C1
:06343A00006A0EAE26EF51
:103440001AF00D6C0E1EE86A0E22001E09AE2EEF59
:103450001AF0086C091EE86A0922001E2BEC1BF00A
:1034600009BE3EEF1AF000AE000C086C091EE86AB7
:103470000922046C051EE86A0522000C00BE35EF27
:103480001AF00188FF0C09C013F008C012F00850B0
:103490000D02F4CF07F0F3CF06F009500E02F4CF7F
:1034A00009F0F3CF08F00D02F3500726F45008227C
:1034B000E86A092212500E02F3500726F45008223F
:1034C000E86A09220EAE69EF1AF01250085E135036
:1034D000095A13AE000C0D50085E0E50095A000C2C
:1034E00008C012F008500D02F4CF07F0F3CF06F039
:1034F00009500E02F4CF09F0F3CF08F00D02F3509B
:103500000726F4500822E86A092212500E02F350EE
:0C3510000726F4500822E86A0922000C8B
:04351C001E0EF66E1B
:10352000100EF76E000EF86E00010900F550F76FEF
:103530000900F550F86F03E1F76701D03DD00900AD
:10354000F550F26F0900F550F36F0900F550F46F74
:1035500009000900F550E96E0900F550EA6E09000E
:1035600009000900F550F56F0900F550F66F0900E4
:103570000900F6CFF9F0F7CFFAF0F8CFFBF0F2C080
:10358000F6FFF3C0F7FFF4C0F8FF0001F55302E1C6
:10359000F65307E00900F550EE6EF507F8E2F6077E
:1035A000F9D7F9C0F6FFFAC0F7FFFBC0F8FF00013A
:0A35B000F707000EF85BBFD712000A
:0635BA00FE0EE3CFE9FF65
:1035C000FF0EE3CFEAFFE9CFF3FFEACFF4FFFB0EF4
:1035D000E35003E1FC0EE35009E0FB0EE30602E2D8
:1035E000FC0EE306FD0EE350EE6EF1D71200FE0E68
:1035F000E3CFE9FFFF0EE3CFEAFFF36AF46AEE528E
:0A36000003E0F34AF42AFBD712009E
:06360A00D9CFE6FFE1CF7D
:10361000D9FFFD0EDB50A96EA66AA680A85000D087
:10362000E552E7CFD9FF1200D9CFE6FFE1CFD9FFAE
:10363000FD0EDB50A96EFC0EDB50A86E040EA66ECC
:10364000550EA76EAA0EA76EA682A6B2FED7E552A9
:06365000E7CFD9FF1200D4
:0A365600056A046A100EE76ED890B2
:1036600008360936043605360D50045C0E500558F0
:1036700005E30D50045E0E50055A082AE72EF0D7D8
:02368000120036
:0E368200000EF36E00EE00F0030E01D81200F1
:10369000EA6002D0EE6AFCD7F350E9601200EE6AED
:0236A000FCD755
:0E36A20011EE00F021EE00F0F86A019C8EECB3
:0E36B0001AF003EC08F0ADEC10F0FBD712009E
:0236BE00C450F6
:1036C000176E166AC3501610F36E17C0F4FF12007F
:1036D0003030390000000000000000000000000051
:1036E00000000000000010000000000020030000A7
:0936F000000000000000000000D1
:020000040030CA
:0100000000FF
:0100010032CC
:0100020021DC
:010003001EDE
:0100050000FA
:010006008178
:0100080003F4
:01000900C036
:01000A0003F2
:01000B00E014
:01000C0003F0
:01000D0040B2
:00000001FF
